:100000004EC0BCC167C066C065C064C063C062C08A
:1000100061C060C05FC05EC05DC05CC05BC05AC0F4
:1000200059C058C057C009021200010100801909C7
:10003000040000000000000012011001FF00000891
:10004000C016DC0504010102030128036A006100F7
:1000500072006F0064006C00610075004000670072
:100060006D00610069006C002E0063006F006D0080
:100070000E035500530042006100730070001C0322
:100080007700770077002E00660069007300630038
:1000900068006C002E00640065000403090411244C
:1000A0001FBECFE5D4E0DEBFCDBF10E0A0E6B0E0DC
:1000B000E4E4F4E102C005900D92A236B107D9F74D
:1000C00020E0A2E6B0E001C01D92AC3AB207E1F731
:1000D000A4D9B6C995CFCF93DF93609188006350C0
:1000E00067FD13C080918500CCE0D0E0C81BD1092A
:1000F000C457DF4F809184008D3209F457C080913E
:10010000620087FD9BC0109288008091610084FF8F
:1001100040C0609160006F3F09F43BC0693008F453
:100120006FC06850609360008091780098E88927DC
:100130008093780068E08091620087FD1DC0409147
:1001400086005091870086FF70C0A9E7B0E0FA01F1
:10015000962F84918D9331969150D9F72FEF260FDA
:1001600030E02F5F3F4F240F351F309387002093DF
:100170008600C4E0C60F4FC089E790E0FBD7682F28
:10018000893008F4A0C08FEF80936000CEE1C09367
:10019000610094E186B3837031F49150D9F71092E5
:1001A000890010928300DF91CF910895683009F0A3
:1001B000AACF83EC809378008AE580936100109247
:1001C00062008881807609F043C08A8110928100A4
:1001D0009981911147C01092820021E830E082E0BD
:1001E00030938700209386008F3FA9F19F81911162
:1001F00004C09E81981708F4892F8093600083CFF4
:10020000109260008091780098E8892780937800A8
:10021000611191CFC4E089E790E0ACD0CC3009F413
:10022000B6CF8FEF80936000B2CFDA01E9E7F0E05C
:10023000962F8D9181939150E1F790CFCE0118D8F0
:100240008F3FF9F0882309F45ECF109260005BCFF6
:10025000CE0181D5C9CF988197FD1DC090E89093BC
:100260006200CBCF953089F0963009F19830D9F003
:10027000993099F081E09A3009F080E021E830E08F
:10028000AFCF8EE1809361003ECF8093890021E85B
:1002900030E080E0A5CF8E81E1CF80938B0021E814
:1002A00030E080E09DCF2BE830E081E099CF9B816A
:1002B0009130F1F09230A1F0933041F080E090E481
:1002C0009093620091CFC4E0C80FA5CF811118C0F0
:1002D0008AE990E0909387008093860084E0EFCFD6
:1002E00086E290E0909387008093860082E1E7CFDA
:1002F00088E390E0909387008093860082E1DFCFCF
:10030000813061F0823091F08330C1F68AE490E070
:10031000909387008093860086E2D1CF8EE790E0AD
:1003200090938700809386008CE1C9CF80E790E0AE
:1003300090938700809386008EE0C1CF85B783605D
:1003400085BF8BB780648BBF0895A82FB92F80E03D
:1003500090E041E050EA609530E009C02D9182279D
:100360009795879510F084279527305EC8F36F5FC7
:10037000A8F30895EADF8D939D930895CF93CFB7A7
:10038000CF93C395B09BE9F7B09B09C0B09B07C062
:10039000B09B05C0B09B03C0B09B01C0A1C0DF9360
:1003A000C0918500DD27C457DF4FB09B02C0DF91AD
:1003B000EBCF2F930F931F9306B32FEF00FB20F982
:1003C0004F933F9316B34FEF012700FB21F93BE01A
:1003D00031C04E7F012F16B3216028C0102F4D7FF2
:1003E0002260000006B329C04B7F2460012F00006B
:1003F00016B32BC016B3477F28602AC04F7E06B3C2
:1004000020612CC04F7D16B320622FC04F7B06B3F6
:10041000206432C0422706B349934FEF00001027F3
:1004200010FB20F916B31370C9F1297F91F201274F
:1004300000FB21F906B3237F89F2315058F11027D0
:1004400010FB22F916B3277E79F2012700FB23F96E
:100450002F7C81F206B3102710FB24F92F7971F25B
:1004600000C016B3012700FB25F92F7359F200C015
:1004700006B3102710FB26F9223040F200C016B355
:10048000012700FB27F9243028F64F77206816B3A0
:100490000000F9CF10E41ABF002717C03B50319578
:1004A000C31BD04010E41ABF0881033CE9F00B34B1
:1004B000D9F0209183001981110F1213EDCF093665
:1004C00041F10D3211F0013E39F700938A003F915E
:1004D0004F911F910F912F91DF91CAB7C6FD51CF58
:1004E000CF91CFBFCF91189520918A00222379F325
:1004F00010918800112311F5343012F130938800E7
:1005000020938400109185003BE0311B30938500DF
:1005100017C00091880001308CF40AE53091610029
:1005200034FD10C000936100C8E7D0E00FC02795EC
:10053000A8F45150A9F4220F0000F9CF4AE503C0F6
:1005400042ED01C0432FC4E1D0E032E017B31360A5
:10055000C09A17BB08B320E413E05F93012756E06D
:1005600008BB279520F4515021F4220FF9CF012721
:1005700056E000003B5A08BBD0F2279528F45150B2
:1005800029F4220F0000F9CF012756E0279508BB78
:1005900020F4515021F4220FF9CF012756E0299180
:1005A000332308BB21F60C7F10918900110FC6512F
:1005B000D04008BB11F01093830010E41ABF016013
:1005C00017B31C7F402F4C7F5F9100C000C008BB59
:1005D00017BB48BB7CCF582F48E080E057FD18C0C0
:1005E000C398550F880FB4998F5FC59A32B7209181
:1005F000A80092B7931B9217E0F3C59832B72091E9
:10060000A80092B7931B9217E0F3415039F7089571
:10061000C39AE7CF8FB9779BFECF8FB1089521E1C1
:1006200096958795779567952A95D1F72091A6009D
:100630002617D9F06093A600E091A300F091A400E2
:100640008DE40995E091A300F091A40080E0099564
:10065000E091A300F091A4008091A6000995E0919B
:10066000A300F091A40080E0099408958091A50072
:100670008DB98091A2008EB908958823C9F0883081
:1006800008F04BC02BEE32E03093A4002093A3007F
:10069000843079F190F1863049F1B8F1873029F54D
:1006A00083E08093A8008091A7008F3FA1F0089578
:1006B0008AE093E09093A4008093A30081E080936C
:1006C000A80082E58093A50081E08093A20080913C
:1006D000A7008F3F61F78BEE92E09093A400809388
:1006E000A30082E08093A800089580EC8093A80086
:1006F000DACF88E18093A800D6CF823051F08330E2
:10070000A1F780E38093A800CECF8CE08093A8006F
:10071000CACF80E68093A800C6CF2AE033E03093AA
:10072000A4002093A3001092A20091E09093A8004F
:10073000893059F070F08B3021F08C3011F69093A5
:10074000A20081E58093A500AECF82E58093A5004D
:10075000AACF883009F0B5CF83E58093A500A3CF59
:1007600022B79091A80082B7821B8917E0F3089501
:1007700087B38C6287BB8091A70081111CC0C2988F
:10078000C59822B79091A80082B7821B8917E0F321
:10079000C29A22B79091A80082B7821B8917E0F312
:1007A000C2988091A3009091A4008A50934019F1BF
:1007B0001092A6000895C29AC59822B79091A800F9
:1007C00082B7821B8917E0F3C29822B79091A800E4
:1007D00082B7821B8917E0F3C29A22B79091A800D2
:1007E00082B7821B8917E0F38091A3009091A40047
:1007F0008A509340E9F68091A5008DB98091A200BE
:100800008EB91092A600089587B3837D87BB88B305
:10081000837D88BB1DB80895CF93DF931092A70006
:10082000A7DFE091A300F091A400C0E18CEA099554
:10083000E091A300F091A40083E50995E091A30065
:10084000F091A40080E00995D82FE091A300F091E9
:10085000A40080E00995D33509F470C01DB822B713
:100860009091A80082B7821B8917E0F3C29A22B741
:100870009091A80082B7821B8917E0F3C29822B733
:100880009091A80082B7821B8917E0F3E091A30042
:10089000F091A40083E0EA30F80709F444C0C150A5
:1008A00029F68FEF8093A700EA50F34009F44AC07D
:1008B0008BEE92E09093A4008093A30082E080935B
:1008C000A80056DFC0E1E091A300F091A4008CEAFB
:1008D0000995E091A300F091A40083E50995E091CA
:1008E000A300F091A40080E00995E091A300F091AD
:1008F000A40080E00995893609F1C59A22B7909144
:10090000A80082B7821B8917E0F3C59822B790919F
:10091000A80082B7821B8917E0F3C150A1F681E0DD
:10092000DF91CF9108958091A5008DB98091A200AB
:100930008EB9E091A300F091A400B1CF80E0DF91E7
:10094000CF9108951DB8B4CFCF92DF92EF92FF926E
:100950006B017C0164DE8091A7008823E1F0E091C7
:10096000A300F091A40080E20995E091A300F0912A
:10097000A4008D2D0995E091A300F091A4008C2D89
:100980000995E091A300F091A40080E0FF90EF9022
:10099000DF90CF9009948C2D8170880F880F880F7D
:1009A000E091A300F091A40080620995D701C601EF
:1009B00039E0B695A795979587953A95D1F7E09147
:1009C000A300F091A4000995D701C601B695A7959B
:1009D00097958795E091A300F091A4000995D1CF58
:1009E000CF92DF92EF92FF920F931F93CF93DF93FB
:1009F0001F92CDB7DEB76B017C01142F8091A70049
:100A0000811144C0C701B601298309DE8C2D817094
:100A1000880F880F880FE091A300F091A4008064F4
:100A20000995E091A300F091A400D701C60159E017
:100A3000B695A795979587955A95D1F70995E09121
:100A4000A300F091A400D701C601B695A79597958C
:100A500087950995E091A300F091A400812F099555
:100A600029812223C1F11F37A1F102B71EE1C7017D
:100A7000B6016ADF8F3779F582B7801B8D3310F0AE
:100A800002B711501111F3CF81E019C0E091A3001A
:100A9000F091A40080E40995E091A300F091A400F6
:100AA0008D2D0995E091A300F091A4008C2D09955E
:100AB000E091A300F091A400812F099580E00F90B0
:100AC000DF91CF911F910F91FF90EF90DF90CF902A
:100AD00008958FE0AAD080E0F2CFCF92DF92EF921C
:100AE000FF920F931F93CF93DF931F92CDB7DEB783
:100AF0006B017C01498393DDE091A300F091A40098
:100B00008CE40995D701C60179E0B695A79597952C
:100B100087957A95D1F7E091A300F091A40009950B
:100B2000D701C601B695A79597958795E091A30043
:100B3000F091A4000995E091A300F091A40080E059
:100B4000099549814F3FE1F002B71EE1C701B601A7
:100B5000FBDE8F3F99F482B7801B8D3310F002B714
:100B600011501111F3CF81E00F90DF91CF911F91C0
:100B70000F91FF90EF90DF90CF90089580E0F4CF39
:100B80008FE053D080E0F0CF1F93CF93DF931F927D
:100B9000CDB7DEB7182FE091A300F091A40080EA52
:100BA00099830995E091A300F091A4009981892F80
:100BB0000995E091A300F091A400812F0995E0919F
:100BC000A300F091A40080E00F90DF91CF911F91DE
:100BD00009941F93CF93DF9300D0CDB7DEB7182FC2
:100BE000E091A300F091A40080EC6A8399830995B9
:100BF000E091A300F091A4009981892F0995E091DB
:100C0000A300F091A400812F0995E091A300F09139
:100C1000A4006A81862F09958EE107D080E00F90AD
:100C20000F90DF91CF911F910895882349F030E014
:100C300022B792B7921B9C33E0F33F5F3813F8CF93
:100C40000895BD9ABB98C39A50E217D05A95E9F718
:100C50000895AC0188E605D0842F03D089E601D041
:100C6000852F0FD028E030E0382780FB869506D00E
:100C70002A95D1F730FB02D000D06894BB98C39A74
:100C800016F0C398BB9AE091AA00F091AB0031979F
:100C9000F0F7C59AE6B3E3FBE091AA00F091AB0050
:100CA0003197F0F7C598089520ECE7DF46F42A95D0
:100CB000E1F780E02AE1E5DF2A95E9F7DECF28E0D9
:100CC00030E0DBDF869587F938272A95D1F7D5DF25
:100CD00027F9322772F3D1DFD0CFDB01742FB9DFD0
:100CE00084E2BFDFE1DF8D937A95D1F70895DB01D0
:100CF000742FAFDF83EFB5DF8DE1B3DF84E6B1DFC3
:100D00008D91AFDF82E7ADDFCFDF8078D9F77A95BD
:100D100089F7089579DDA99A9A990AC085E0ADDC32
:100D200010926D00A99824DD77DD813059F0089587
:100D300080916E00A2DC10926D00A99819DD6CDD27
:100D40008130A9F761DDA99A85E097DC10926D00EA
:100D5000A9980EDD61CDCF93DF93EC0189818130BD
:100D600089F1823009F4C1C0833009F463C0843052
:100D7000A1F1873009F48EC0853009F44BC186306B
:100D800009F4B7C0883009F4EEC0893009F447C1CE
:100D90008A3009F476C18B3009F4B9C18C3009F47A
:100DA000CBC18D3009F4DDC18E3009F4DFC18F3045
:100DB00009F446C1803109F46BC18F3709F49CC135
:100DC00080E02FC09A9B63C080916E0056DC109229
:100DD0006D00A998CDDC80E024C080916D00811168
:100DE00012C04B8150E0542F44278A81482B66273C
:100DF00057FD6095762F4093690050936A00609389
:100E00006B0070936C008F8190E0982F88272E8163
:100E1000822B909368008093670082E080936F003C
:100E20008FEF20E730E03093870020938600DF913A
:100E3000CF9108958091A700882309F450C08A813A
:100E4000E091A300F091A400843209F4B9C080338A
:100E500009F4B4C0099580937000E091A300F0916B
:100E6000A4008B81099580937100E091A300F0911B
:100E7000A4008C81099580937200E091A300F09109
:100E8000A4008D8109958093730084E0CACF85E02A
:100E9000F4DB9DCF80916D00811112C04B8150E039
:100EA000542F44278A81482B662757FD6095762F5B
:100EB0004093690050936A0060936B0070936C00DC
:100EC0008F8190E0982F88272E81822B9093680045
:100ED0008093670083E080936F008FEFA2CFE09153
:100EE000A300F091A4008A81B5CF8EDCA99A80E09E
:100EF00098CF80916D00811112C08B8190E0982F66
:100F000088272A81822BAA2797FDA095BA2F809344
:100F1000690090936A00A0936B00B0936C003C81D1
:100F20002D81822F8F7080936400822F807F40E11B
:100F3000849FC0011124830F911D909366008093BC
:100F4000650020FD809363008F8190E0982F8827B3
:100F50002E81822B909368008093670081E08093BC
:100F60006F008FEF5ECF80916D00811112C08B8179
:100F700090E0982F88272A81822BAA2797FDA09599
:100F8000BA2F8093690090936A00A0936B00B0938E
:100F90006C001092660010926500109264008F81C0
:100FA00090E0982F88272E81822B90936800809361
:100FB000670084E080936F008FEF33CF88E24ACFE1
:100FC000099580937000E091A300F091A4008B81BB
:100FD000099580937100E091A300F091A4008C81A9
:100FE000099580937200E091A300F091A4008D8197
:100FF00009958C71843009F473C008F46AC08C3090
:1010000009F475C08C3109F070C08FEF80937300C4
:1010100084E007CF7FDE8093700081E002CF81E023
:1010200080936D008A819B81AC81BD818093690032
:1010300090936A00A0936B00B0936C0080E0F1CEB7
:101040008B8190E0982F88272A81822BAA2797FDF1
:10105000A095BA2F8093690090936A00A0936B00CB
:10106000B0936C008F8190E0982F88272E81822B7F
:10107000909368008093670085E080936F008FEF06
:10108000D0CE8A8180936E001092700081E0C9CE2C
:101090008B8190E0982F88272A81822BAA2797FDA1
:1010A000A095BA2F8093690090936A00A0936B007B
:1010B000B0936C008F8190E0982F88272E81822B2F
:1010C000909368008093670086E080936F008FEFB5
:1010D000A8CE81110AC080EE8093730084E0A1CE77
:1010E00085EE8093730084E09CCE84E09ACE8EEEF1
:1010F0008093730084E095CE81E08093700010921D
:101100007100109272001092730084E08ACE8B817D
:1011100090E0982F88272A81822B9093AB008093B0
:10112000AA00C29ABA9A83E080DDC298A99880E1A9
:101130007CDD87DD80E075CE80EC93DD80E091DDA5
:101140008AE073DDC29A85E070DDC29885E06DDDCE
:1011500087B3837D87BB88B3837D88BBA99A80E0F2
:1011600060CEA2DD8093700081E05BCE8A8179DD64
:1011700080E057CEEF92FF920F931F93CF93DF93B0
:10118000E62E50916F002EEF250F223058F055308B
:1011900009F451C08FEFDF91CF911F910F91FF9014
:1011A000EF9008956623E9F16091690070916A00FB
:1011B00040916B0020916C00EC01F12C20C0CB0120
:1011C000E3DC88830091690010916A0020916B0034
:1011D00030916C000F5F1F4F2F4F3F4F00936900FE
:1011E00010936A0020936B0030936C00F394219667
:1011F000FE1461F050916F00B801422F232F52303E
:10120000F1F6842F922FA0DB8883DCCF87E08F1547
:1012100040F48F2DDF91CF911F910F91FF90EF90B0
:10122000089510926F008E2DDF91CF911F910F9135
:10123000FF90EF900895462FBC0180916900909136
:101240006A004BDD0091690010916A0020916B00EB
:1012500030916C000E0D111D211D311D0093690090
:1012600010936A0020936B0030936C008E2D93CF07
:10127000DF92EF92FF920F931F93CF93DF939C0126
:10128000F62E40916F00413071F0443061F04630ED
:1012900009F496C08FEFDF91CF911F910F91FF90CE
:1012A000EF90DF900895FF2009F4B5C050916900D8
:1012B00070916A0080916B0090916C00E901E12CC3
:1012C000D12C50C02091650030916600232B09F08D
:1012D00054C021E04881652F83DB20916700309165
:1012E0006800215031093093680020936700232B58
:1012F000E1F410926F008091640081FF3BC0209167
:10130000630030E0809165009091660028173907EE
:1013100089F16091690070916A0080916B009091F1
:101320006C004881DADBDD24D394009169001091D0
:101330006A0020916B0030916C000F5F1F4F2F4FA0
:101340003F4F0093690010936A0020936B00309325
:101350006C00E3942196EF1451F140916F00502FEF
:10136000712FC901413009F4ADCF6881852F972FC6
:1013700030DCB3CFDD24D394D8CF20E04881652F73
:101380002FDB809163008150809363008111A5CF92
:101390006091690070916A0080916B0090916C007F
:1013A00048819BDB809165008093630096CF8D2DF3
:1013B000DF91CF911F910F91FF90EF90DF900895F3
:1013C000462FBC018091690090916A0090DC809169
:1013D000690090916A00A0916B00B0916C008F0D34
:1013E000911DA11DB11D8093690090936A00A09387
:1013F0006B00B0936C0080916700909168008F192A
:1014000091099093680080936700892B21F41092D2
:101410006F0081E040CF80E03ECF12BA18BA8BEF68
:1014200081BB8FEF87BB17BA83E084BB9EEF95BB70
:101430001092A70083BF82D778944DD64CD6FDCFAB
:04144000F894FFCF4E
:02144400FF5A4D
:00000001FF
